{
  "transactions": [
    {
      "hash": "0x5306b4e19b0ddea8b05c11d0471418734f0da5e1536c20c3e3a6d983e76ac384",
      "transactionType": "CALL",
      "contractName": "LinkToken",
      "contractAddress": "0x779877A7B0D9E8603169DdbD7836e478b4624789",
      "function": "transferAndCall(address,uint256,bytes):(bool)",
      "arguments": [
        "0x8103B0A8A00be2DDC778e6e7eaa21791Cd364625",
        "3000000000000000000",
        "0x00000000000000000000000000000000000000000000000000000000000010b0"
      ],
      "transaction": {
        "type": "0x02",
        "from": "0x0bb18cbc56740d2f7673ca8809d3eb7b069a0d90",
        "to": "0x779877a7b0d9e8603169ddbd7836e478b4624789",
        "gas": "0x13fbe",
        "value": "0x0",
        "data": "0x4000aea00000000000000000000000008103b0a8a00be2ddc778e6e7eaa21791cd36462500000000000000000000000000000000000000000000000029a2241af62c00000000000000000000000000000000000000000000000000000000000000000060000000000000000000000000000000000000000000000000000000000000002000000000000000000000000000000000000000000000000000000000000010b0",
        "nonce": "0x7",
        "accessList": []
      },
      "additionalContracts": [],
      "isFixedGasLimit": false
    }
  ],
  "receipts": [],
  "libraries": [],
  "pending": [
    "0x5306b4e19b0ddea8b05c11d0471418734f0da5e1536c20c3e3a6d983e76ac384"
  ],
  "returns": {},
  "timestamp": 1691746361,
  "chain": 11155111,
  "multi": false,
  "commit": "8f12cc3"
}