{
  "transactions": [
    {
      "hash": "0x5306b4e19b0ddea8b05c11d0471418734f0da5e1536c20c3e3a6d983e76ac384",
      "transactionType": "CALL",
      "contractName": "LinkToken",
      "contractAddress": "0x779877A7B0D9E8603169DdbD7836e478b4624789",
      "function": "transferAndCall(address,uint256,bytes):(bool)",
      "arguments": [
        "0x8103B0A8A00be2DDC778e6e7eaa21791Cd364625",
        "3000000000000000000",
        "0x00000000000000000000000000000000000000000000000000000000000010b0"
      ],
      "transaction": {
        "type": "0x02",
        "from": "0x0bb18cbc56740d2f7673ca8809d3eb7b069a0d90",
        "to": "0x779877a7b0d9e8603169ddbd7836e478b4624789",
        "gas": "0x13fbe",
        "value": "0x0",
        "data": "0x4000aea00000000000000000000000008103b0a8a00be2ddc778e6e7eaa21791cd36462500000000000000000000000000000000000000000000000029a2241af62c00000000000000000000000000000000000000000000000000000000000000000060000000000000000000000000000000000000000000000000000000000000002000000000000000000000000000000000000000000000000000000000000010b0",
        "nonce": "0x7",
        "accessList": []
      },
      "additionalContracts": [],
      "isFixedGasLimit": false
    }
  ],
  "receipts": [
    {
      "transactionHash": "0x5306b4e19b0ddea8b05c11d0471418734f0da5e1536c20c3e3a6d983e76ac384",
      "transactionIndex": "0x3",
      "blockHash": "0x473f9e7d5443ddc834ce870dd7f7841839961984a2f4a48c26d14389bae5b1ea",
      "blockNumber": "0x3e0f7e",
      "from": "0x0bb18cBc56740D2f7673CA8809D3Eb7b069a0d90",
      "to": "0x779877A7B0D9E8603169DdbD7836e478b4624789",
      "cumulativeGasUsed": "0x1f96e4",
      "gasUsed": "0xe77e",
      "contractAddress": null,
      "logs": [
        {
          "address": "0x779877A7B0D9E8603169DdbD7836e478b4624789",
          "topics": [
            "0xddf252ad1be2c89b69c2b068fc378daa952ba7f163c4a11628f55a4df523b3ef",
            "0x0000000000000000000000000bb18cbc56740d2f7673ca8809d3eb7b069a0d90",
            "0x0000000000000000000000008103b0a8a00be2ddc778e6e7eaa21791cd364625"
          ],
          "data": "0x00000000000000000000000000000000000000000000000029a2241af62c0000",
          "blockHash": "0x473f9e7d5443ddc834ce870dd7f7841839961984a2f4a48c26d14389bae5b1ea",
          "blockNumber": "0x3e0f7e",
          "transactionHash": "0x5306b4e19b0ddea8b05c11d0471418734f0da5e1536c20c3e3a6d983e76ac384",
          "transactionIndex": "0x3",
          "logIndex": "0x4",
          "removed": false
        },
        {
          "address": "0x779877A7B0D9E8603169DdbD7836e478b4624789",
          "topics": [
            "0xe19260aff97b920c7df27010903aeb9c8d2be5d310a2c67824cf3f15396e4c16",
            "0x0000000000000000000000000bb18cbc56740d2f7673ca8809d3eb7b069a0d90",
            "0x0000000000000000000000008103b0a8a00be2ddc778e6e7eaa21791cd364625"
          ],
          "data": "0x00000000000000000000000000000000000000000000000029a2241af62c00000000000000000000000000000000000000000000000000000000000000000040000000000000000000000000000000000000000000000000000000000000002000000000000000000000000000000000000000000000000000000000000010b0",
          "blockHash": "0x473f9e7d5443ddc834ce870dd7f7841839961984a2f4a48c26d14389bae5b1ea",
          "blockNumber": "0x3e0f7e",
          "transactionHash": "0x5306b4e19b0ddea8b05c11d0471418734f0da5e1536c20c3e3a6d983e76ac384",
          "transactionIndex": "0x3",
          "logIndex": "0x5",
          "removed": false
        },
        {
          "address": "0x8103B0A8A00be2DDC778e6e7eaa21791Cd364625",
          "topics": [
            "0xd39ec07f4e209f627a4c427971473820dc129761ba28de8906bd56f57101d4f8",
            "0x00000000000000000000000000000000000000000000000000000000000010b0"
          ],
          "data": "0x0000000000000000000000000000000000000000000000008ac7230489e80000000000000000000000000000000000000000000000000000b469471f80140000",
          "blockHash": "0x473f9e7d5443ddc834ce870dd7f7841839961984a2f4a48c26d14389bae5b1ea",
          "blockNumber": "0x3e0f7e",
          "transactionHash": "0x5306b4e19b0ddea8b05c11d0471418734f0da5e1536c20c3e3a6d983e76ac384",
          "transactionIndex": "0x3",
          "logIndex": "0x6",
          "removed": false
        }
      ],
      "status": "0x1",
      "logsBloom": "0x0000001400000000000000000000000020000000000000020000000002000000000000000000800000000000000000000000000000000000000000000000000000000000000000000000000800000000000000000000000000002000000000000000000040000000000000000000000000000000400000000000001000000000000000000c000060000000000000800010000020000000000000000000000000000000000000000000000000000000000000000080000000000400000000000080000002000000000000000000000000000100000000000100000000000000000000000000000000000000000000000000000000000000000000000000000000",
      "type": "0x2",
      "effectiveGasPrice": "0xb329320f"
    }
  ],
  "libraries": [],
  "pending": [],
  "returns": {},
  "timestamp": 1691746374,
  "chain": 11155111,
  "multi": false,
  "commit": "8f12cc3"
}